{
    "contractName": "PublicResolver",
    "abi": [
        {
            "inputs": [
                {
                    "name": "ensAddr",
                    "type": "address"
                }
            ],
            "payable": false,
            "stateMutability": "nonpayable",
            "type": "constructor"
        },
        {
            "anonymous": false,
            "inputs": [
                {
                    "indexed": true,
                    "name": "node",
                    "type": "bytes32"
                },
                {
                    "indexed": false,
                    "name": "a",
                    "type": "address"
                }
            ],
            "name": "AddrChanged",
            "type": "event"
        },
        {
            "anonymous": false,
            "inputs": [
                {
                    "indexed": true,
                    "name": "node",
                    "type": "bytes32"
                },
                {
                    "indexed": false,
                    "name": "hash",
                    "type": "bytes32"
                }
            ],
            "name": "ContentChanged",
            "type": "event"
        },
        {
            "anonymous": false,
            "inputs": [
                {
                    "indexed": true,
                    "name": "node",
                    "type": "bytes32"
                },
                {
                    "indexed": false,
                    "name": "name",
                    "type": "string"
                }
            ],
            "name": "NameChanged",
            "type": "event"
        },
        {
            "anonymous": false,
            "inputs": [
                {
                    "indexed": true,
                    "name": "node",
                    "type": "bytes32"
                },
                {
                    "indexed": true,
                    "name": "contentType",
                    "type": "uint256"
                }
            ],
            "name": "ABIChanged",
            "type": "event"
        },
        {
            "anonymous": false,
            "inputs": [
                {
                    "indexed": true,
                    "name": "node",
                    "type": "bytes32"
                },
                {
                    "indexed": false,
                    "name": "x",
                    "type": "bytes32"
                },
                {
                    "indexed": false,
                    "name": "y",
                    "type": "bytes32"
                }
            ],
            "name": "PubkeyChanged",
            "type": "event"
        },
        {
            "constant": true,
            "inputs": [
                {
                    "name": "interfaceID",
                    "type": "bytes4"
                }
            ],
            "name": "supportsInterface",
            "outputs": [
                {
                    "name": "",
                    "type": "bool"
                }
            ],
            "payable": false,
            "stateMutability": "view",
            "type": "function"
        },
        {
            "constant": true,
            "inputs": [
                {
                    "name": "node",
                    "type": "bytes32"
                }
            ],
            "name": "addr",
            "outputs": [
                {
                    "name": "ret",
                    "type": "address"
                }
            ],
            "payable": false,
            "stateMutability": "view",
            "type": "function"
        },
        {
            "constant": false,
            "inputs": [
                {
                    "name": "node",
                    "type": "bytes32"
                },
                {
                    "name": "addr",
                    "type": "address"
                }
            ],
            "name": "setAddr",
            "outputs": [],
            "payable": false,
            "stateMutability": "nonpayable",
            "type": "function"
        },
        {
            "constant": true,
            "inputs": [
                {
                    "name": "node",
                    "type": "bytes32"
                }
            ],
            "name": "content",
            "outputs": [
                {
                    "name": "ret",
                    "type": "bytes32"
                }
            ],
            "payable": false,
            "stateMutability": "view",
            "type": "function"
        },
        {
            "constant": false,
            "inputs": [
                {
                    "name": "node",
                    "type": "bytes32"
                },
                {
                    "name": "hash",
                    "type": "bytes32"
                }
            ],
            "name": "setContent",
            "outputs": [],
            "payable": false,
            "stateMutability": "nonpayable",
            "type": "function"
        },
        {
            "constant": true,
            "inputs": [
                {
                    "name": "node",
                    "type": "bytes32"
                }
            ],
            "name": "name",
            "outputs": [
                {
                    "name": "ret",
                    "type": "string"
                }
            ],
            "payable": false,
            "stateMutability": "view",
            "type": "function"
        },
        {
            "constant": false,
            "inputs": [
                {
                    "name": "node",
                    "type": "bytes32"
                },
                {
                    "name": "name",
                    "type": "string"
                }
            ],
            "name": "setName",
            "outputs": [],
            "payable": false,
            "stateMutability": "nonpayable",
            "type": "function"
        },
        {
            "constant": true,
            "inputs": [
                {
                    "name": "node",
                    "type": "bytes32"
                },
                {
                    "name": "contentTypes",
                    "type": "uint256"
                }
            ],
            "name": "ABI",
            "outputs": [
                {
                    "name": "contentType",
                    "type": "uint256"
                },
                {
                    "name": "data",
                    "type": "bytes"
                }
            ],
            "payable": false,
            "stateMutability": "view",
            "type": "function"
        },
        {
            "constant": false,
            "inputs": [
                {
                    "name": "node",
                    "type": "bytes32"
                },
                {
                    "name": "contentType",
                    "type": "uint256"
                },
                {
                    "name": "data",
                    "type": "bytes"
                }
            ],
            "name": "setABI",
            "outputs": [],
            "payable": false,
            "stateMutability": "nonpayable",
            "type": "function"
        },
        {
            "constant": true,
            "inputs": [
                {
                    "name": "node",
                    "type": "bytes32"
                }
            ],
            "name": "pubkey",
            "outputs": [
                {
                    "name": "x",
                    "type": "bytes32"
                },
                {
                    "name": "y",
                    "type": "bytes32"
                }
            ],
            "payable": false,
            "stateMutability": "view",
            "type": "function"
        },
        {
            "constant": false,
            "inputs": [
                {
                    "name": "node",
                    "type": "bytes32"
                },
                {
                    "name": "x",
                    "type": "bytes32"
                },
                {
                    "name": "y",
                    "type": "bytes32"
                }
            ],
            "name": "setPubkey",
            "outputs": [],
            "payable": false,
            "stateMutability": "nonpayable",
            "type": "function"
        }
    ],
    "bytecode": "0x608060405234801561001057600080fd5b5060405160208061152383398101806040528101908080519060200190929190505050806000806101000a81548173ffffffffffffffffffffffffffffffffffffffff021916908373ffffffffffffffffffffffffffffffffffffffff160217905550506114a0806100836000396000f3006080604052600436106100af576000357c0100000000000000000000000000000000000000000000000000000000900463ffffffff16806301ffc9a7146100b45780632203ab561461011857806329cd62ea146101d35780632dff6941146102205780633b3b57de1461026d578063623195b0146102de578063691f34311461035f5780637737221314610409578063c3d014d614610480578063c8690233146104bf578063d5fa2b001461051b575b600080fd5b3480156100c057600080fd5b506100fe60048036038101908080357bffffffffffffffffffffffffffffffffffffffffffffffffffffffff1916906020019092919050505061056c565b604051808215151515815260200191505060405180910390f35b34801561012457600080fd5b506101516004803603810190808035600019169060200190929190803590602001909291905050506107f0565b6040518083815260200180602001828103825283818151815260200191508051906020019080838360005b8381101561019757808201518184015260208101905061017c565b50505050905090810190601f1680156101c45780820380516001836020036101000a031916815260200191505b50935050505060405180910390f35b3480156101df57600080fd5b5061021e600480360381019080803560001916906020019092919080356000191690602001909291908035600019169060200190929190505050610933565b005b34801561022c57600080fd5b5061024f6004803603810190808035600019169060200190929190505050610af8565b60405180826000191660001916815260200191505060405180910390f35b34801561027957600080fd5b5061029c6004803603810190808035600019169060200190929190505050610b20565b604051808273ffffffffffffffffffffffffffffffffffffffff1673ffffffffffffffffffffffffffffffffffffffff16815260200191505060405180910390f35b3480156102ea57600080fd5b5061035d600480360381019080803560001916906020019092919080359060200190929190803590602001908201803590602001908080601f0160208091040260200160405190810160405280939291908181526020018383808284378201915050505050509192919290505050610b68565b005b34801561036b57600080fd5b5061038e6004803603810190808035600019169060200190929190505050610d05565b6040518080602001828103825283818151815260200191508051906020019080838360005b838110156103ce5780820151818401526020810190506103b3565b50505050905090810190601f1680156103fb5780820380516001836020036101000a031916815260200191505b509250505060405180910390f35b34801561041557600080fd5b5061047e6004803603810190808035600019169060200190929190803590602001908201803590602001908080601f0160208091040260200160405190810160405280939291908181526020018383808284378201915050505050509192919290505050610dc5565b005b34801561048c57600080fd5b506104bd60048036038101908080356000191690602001909291908035600019169060200190929190505050610fab565b005b3480156104cb57600080fd5b506104ee6004803603810190808035600019169060200190929190505050611128565b60405180836000191660001916815260200182600019166000191681526020019250505060405180910390f35b34801561052757600080fd5b5061056a6004803603810190808035600019169060200190929190803573ffffffffffffffffffffffffffffffffffffffff169060200190929190505050611178565b005b6000633b3b57de7c0100000000000000000000000000000000000000000000000000000000027bffffffffffffffffffffffffffffffffffffffffffffffffffffffff1916827bffffffffffffffffffffffffffffffffffffffffffffffffffffffff1916148061063d575063d8389dc57c0100000000000000000000000000000000000000000000000000000000027bffffffffffffffffffffffffffffffffffffffffffffffffffffffff1916827bffffffffffffffffffffffffffffffffffffffffffffffffffffffff1916145b806106a8575063691f34317c0100000000000000000000000000000000000000000000000000000000027bffffffffffffffffffffffffffffffffffffffffffffffffffffffff1916827bffffffffffffffffffffffffffffffffffffffffffffffffffffffff1916145b806107135750632203ab567c0100000000000000000000000000000000000000000000000000000000027bffffffffffffffffffffffffffffffffffffffffffffffffffffffff1916827bffffffffffffffffffffffffffffffffffffffffffffffffffffffff1916145b8061077e575063c86902337c0100000000000000000000000000000000000000000000000000000000027bffffffffffffffffffffffffffffffffffffffffffffffffffffffff1916827bffffffffffffffffffffffffffffffffffffffffffffffffffffffff1916145b806107e957506301ffc9a77c0100000000000000000000000000000000000000000000000000000000027bffffffffffffffffffffffffffffffffffffffffffffffffffffffff1916827bffffffffffffffffffffffffffffffffffffffffffffffffffffffff1916145b9050919050565b6000606060006001600086600019166000191681526020019081526020016000209050600192505b83831115156109265760008484161415801561085d57506000816005016000858152602001908152602001600020805460018160011615610100020316600290049050115b15610917578060050160008481526020019081526020016000208054600181600116156101000203166002900480601f01602080910402602001604051908101604052809291908181526020018280546001816001161561010002031660029004801561090b5780601f106108e05761010080835404028352916020019161090b565b820191906000526020600020905b8154815290600101906020018083116108ee57829003601f168201915b5050505050915061092b565b6001839060020a029250610818565b600092505b509250929050565b823373ffffffffffffffffffffffffffffffffffffffff166000809054906101000a900473ffffffffffffffffffffffffffffffffffffffff1673ffffffffffffffffffffffffffffffffffffffff166302571be3836040518263ffffffff167c0100000000000000000000000000000000000000000000000000000000028152600401808260001916600019168152602001915050602060405180830381600087803b1580156109e357600080fd5b505af11580156109f7573d6000803e3d6000fd5b505050506040513d6020811015610a0d57600080fd5b810190808051906020019092919050505073ffffffffffffffffffffffffffffffffffffffff16141515610a4057600080fd5b6040805190810160405280846000191681526020018360001916815250600160008660001916600019168152602001908152602001600020600301600082015181600001906000191690556020820151816001019060001916905590505083600019167f1d6f5e03d3f63eb58751986629a5439baee5079ff04f345becb66e23eb154e46848460405180836000191660001916815260200182600019166000191681526020019250505060405180910390a250505050565b6000600160008360001916600019168152602001908152602001600020600101549050919050565b600060016000836000191660001916815260200190815260200160002060000160009054906101000a900473ffffffffffffffffffffffffffffffffffffffff169050919050565b823373ffffffffffffffffffffffffffffffffffffffff166000809054906101000a900473ffffffffffffffffffffffffffffffffffffffff1673ffffffffffffffffffffffffffffffffffffffff166302571be3836040518263ffffffff167c0100000000000000000000000000000000000000000000000000000000028152600401808260001916600019168152602001915050602060405180830381600087803b158015610c1857600080fd5b505af1158015610c2c573d6000803e3d6000fd5b505050506040513d6020811015610c4257600080fd5b810190808051906020019092919050505073ffffffffffffffffffffffffffffffffffffffff16141515610c7557600080fd5b6000836001850316141515610c8957600080fd5b8160016000866000191660001916815260200190815260200160002060050160008581526020019081526020016000209080519060200190610ccc92919061134f565b508284600019167faa121bbeef5f32f5961a2a28966e769023910fc9479059ee3495d4c1a696efe360405160405180910390a350505050565b60606001600083600019166000191681526020019081526020016000206002018054600181600116156101000203166002900480601f016020809104026020016040519081016040528092919081815260200182805460018160011615610100020316600290048015610db95780601f10610d8e57610100808354040283529160200191610db9565b820191906000526020600020905b815481529060010190602001808311610d9c57829003601f168201915b50505050509050919050565b813373ffffffffffffffffffffffffffffffffffffffff166000809054906101000a900473ffffffffffffffffffffffffffffffffffffffff1673ffffffffffffffffffffffffffffffffffffffff166302571be3836040518263ffffffff167c0100000000000000000000000000000000000000000000000000000000028152600401808260001916600019168152602001915050602060405180830381600087803b158015610e7557600080fd5b505af1158015610e89573d6000803e3d6000fd5b505050506040513d6020811015610e9f57600080fd5b810190808051906020019092919050505073ffffffffffffffffffffffffffffffffffffffff16141515610ed257600080fd5b816001600085600019166000191681526020019081526020016000206002019080519060200190610f049291906113cf565b5082600019167fb7d29e911041e8d9b843369e890bcb72c9388692ba48b65ac54e7214c4c348f7836040518080602001828103825283818151815260200191508051906020019080838360005b83811015610f6c578082015181840152602081019050610f51565b50505050905090810190601f168015610f995780820380516001836020036101000a031916815260200191505b509250505060405180910390a2505050565b813373ffffffffffffffffffffffffffffffffffffffff166000809054906101000a900473ffffffffffffffffffffffffffffffffffffffff1673ffffffffffffffffffffffffffffffffffffffff166302571be3836040518263ffffffff167c0100000000000000000000000000000000000000000000000000000000028152600401808260001916600019168152602001915050602060405180830381600087803b15801561105b57600080fd5b505af115801561106f573d6000803e3d6000fd5b505050506040513d602081101561108557600080fd5b810190808051906020019092919050505073ffffffffffffffffffffffffffffffffffffffff161415156110b857600080fd5b81600160008560001916600019168152602001908152602001600020600101816000191690555082600019167f0424b6fe0d9c3bdbece0e7879dc241bb0c22e900be8b6c168b4ee08bd9bf83bc8360405180826000191660001916815260200191505060405180910390a2505050565b600080600160008460001916600019168152602001908152602001600020600301600001546001600085600019166000191681526020019081526020016000206003016001015491509150915091565b813373ffffffffffffffffffffffffffffffffffffffff166000809054906101000a900473ffffffffffffffffffffffffffffffffffffffff1673ffffffffffffffffffffffffffffffffffffffff166302571be3836040518263ffffffff167c0100000000000000000000000000000000000000000000000000000000028152600401808260001916600019168152602001915050602060405180830381600087803b15801561122857600080fd5b505af115801561123c573d6000803e3d6000fd5b505050506040513d602081101561125257600080fd5b810190808051906020019092919050505073ffffffffffffffffffffffffffffffffffffffff1614151561128557600080fd5b8160016000856000191660001916815260200190815260200160002060000160006101000a81548173ffffffffffffffffffffffffffffffffffffffff021916908373ffffffffffffffffffffffffffffffffffffffff16021790555082600019167f52d7d861f09ab3d26239d492e8968629f95e9e318cf0b73bfddc441522a15fd283604051808273ffffffffffffffffffffffffffffffffffffffff1673ffffffffffffffffffffffffffffffffffffffff16815260200191505060405180910390a2505050565b828054600181600116156101000203166002900490600052602060002090601f016020900481019282601f1061139057805160ff19168380011785556113be565b828001600101855582156113be579182015b828111156113bd5782518255916020019190600101906113a2565b5b5090506113cb919061144f565b5090565b828054600181600116156101000203166002900490600052602060002090601f016020900481019282601f1061141057805160ff191683800117855561143e565b8280016001018555821561143e579182015b8281111561143d578251825591602001919060010190611422565b5b50905061144b919061144f565b5090565b61147191905b8082111561146d576000816000905550600101611455565b5090565b905600a165627a7a723058205003af2de929f57a8308005b819f045ee4bbfeb9d80d3868cf5e8f8db248839f0029",
    "source": "pragma solidity ^0.4.0;\n\ncontract AbstractENS {\n    function owner(bytes32 node) constant returns(address);\n    function resolver(bytes32 node) constant returns(address);\n    function ttl(bytes32 node) constant returns(uint64);\n    function setOwner(bytes32 node, address owner);\n    function setSubnodeOwner(bytes32 node, bytes32 label, address owner);\n    function setResolver(bytes32 node, address resolver);\n    function setTTL(bytes32 node, uint64 ttl);\n\n    // Logged when the owner of a node assigns a new owner to a subnode.\n    event NewOwner(bytes32 indexed node, bytes32 indexed label, address owner);\n\n    // Logged when the owner of a node transfers ownership to a new account.\n    event Transfer(bytes32 indexed node, address owner);\n\n    // Logged when the resolver for a node changes.\n    event NewResolver(bytes32 indexed node, address resolver);\n\n    // Logged when the TTL of a node changes\n    event NewTTL(bytes32 indexed node, uint64 ttl);\n}\n\n/**\n * A simple resolver anyone can use; only allows the owner of a node to set its\n * address.\n */\ncontract PublicResolver {\n    bytes4 constant INTERFACE_META_ID = 0x01ffc9a7;\n    bytes4 constant ADDR_INTERFACE_ID = 0x3b3b57de;\n    bytes4 constant CONTENT_INTERFACE_ID = 0xd8389dc5;\n    bytes4 constant NAME_INTERFACE_ID = 0x691f3431;\n    bytes4 constant ABI_INTERFACE_ID = 0x2203ab56;\n    bytes4 constant PUBKEY_INTERFACE_ID = 0xc8690233;\n\n    event AddrChanged(bytes32 indexed node, address a);\n    event ContentChanged(bytes32 indexed node, bytes32 hash);\n    event NameChanged(bytes32 indexed node, string name);\n    event ABIChanged(bytes32 indexed node, uint256 indexed contentType);\n    event PubkeyChanged(bytes32 indexed node, bytes32 x, bytes32 y);\n\n    struct PublicKey {\n        bytes32 x;\n        bytes32 y;\n    }\n\n    struct Record {\n        address addr;\n        bytes32 content;\n        string name;\n        PublicKey pubkey;\n        mapping(uint256=>bytes) abis;\n    }\n\n    AbstractENS ens;\n    mapping(bytes32=>Record) records;\n\n    modifier only_owner(bytes32 node) {\n        if(ens.owner(node) != msg.sender) throw;\n        _;\n    }\n\n    /**\n     * Constructor.\n     * @param ensAddr The ENS registrar contract.\n     */\n    function PublicResolver(AbstractENS ensAddr) {\n        ens = ensAddr;\n    }\n\n    /**\n     * Returns true if the resolver implements the interface specified by the provided hash.\n     * @param interfaceID The ID of the interface to check for.\n     * @return True if the contract implements the requested interface.\n     */\n    function supportsInterface(bytes4 interfaceID) constant returns (bool) {\n        return interfaceID == ADDR_INTERFACE_ID ||\n               interfaceID == CONTENT_INTERFACE_ID ||\n               interfaceID == NAME_INTERFACE_ID ||\n               interfaceID == ABI_INTERFACE_ID ||\n               interfaceID == PUBKEY_INTERFACE_ID ||\n               interfaceID == INTERFACE_META_ID;\n    }\n\n    /**\n     * Returns the address associated with an ENS node.\n     * @param node The ENS node to query.\n     * @return The associated address.\n     */\n    function addr(bytes32 node) constant returns (address ret) {\n        ret = records[node].addr;\n    }\n\n    /**\n     * Sets the address associated with an ENS node.\n     * May only be called by the owner of that node in the ENS registry.\n     * @param node The node to update.\n     * @param addr The address to set.\n     */\n    function setAddr(bytes32 node, address addr) only_owner(node) {\n        records[node].addr = addr;\n        AddrChanged(node, addr);\n    }\n\n    /**\n     * Returns the content hash associated with an ENS node.\n     * Note that this resource type is not standardized, and will likely change\n     * in future to a resource type based on multihash.\n     * @param node The ENS node to query.\n     * @return The associated content hash.\n     */\n    function content(bytes32 node) constant returns (bytes32 ret) {\n        ret = records[node].content;\n    }\n\n    /**\n     * Sets the content hash associated with an ENS node.\n     * May only be called by the owner of that node in the ENS registry.\n     * Note that this resource type is not standardized, and will likely change\n     * in future to a resource type based on multihash.\n     * @param node The node to update.\n     * @param hash The content hash to set\n     */\n    function setContent(bytes32 node, bytes32 hash) only_owner(node) {\n        records[node].content = hash;\n        ContentChanged(node, hash);\n    }\n\n    /**\n     * Returns the name associated with an ENS node, for reverse records.\n     * Defined in EIP181.\n     * @param node The ENS node to query.\n     * @return The associated name.\n     */\n    function name(bytes32 node) constant returns (string ret) {\n        ret = records[node].name;\n    }\n    \n    /**\n     * Sets the name associated with an ENS node, for reverse records.\n     * May only be called by the owner of that node in the ENS registry.\n     * @param node The node to update.\n     * @param name The name to set.\n     */\n    function setName(bytes32 node, string name) only_owner(node) {\n        records[node].name = name;\n        NameChanged(node, name);\n    }\n\n    /**\n     * Returns the ABI associated with an ENS node.\n     * Defined in EIP205.\n     * @param node The ENS node to query\n     * @param contentTypes A bitwise OR of the ABI formats accepted by the caller.\n     * @return contentType The content type of the return value\n     * @return data The ABI data\n     */\n    function ABI(bytes32 node, uint256 contentTypes) constant returns (uint256 contentType, bytes data) {\n        var record = records[node];\n        for(contentType = 1; contentType <= contentTypes; contentType <<= 1) {\n            if((contentType & contentTypes) != 0 && record.abis[contentType].length > 0) {\n                data = record.abis[contentType];\n                return;\n            }\n        }\n        contentType = 0;\n    }\n\n    /**\n     * Sets the ABI associated with an ENS node.\n     * Nodes may have one ABI of each content type. To remove an ABI, set it to\n     * the empty string.\n     * @param node The node to update.\n     * @param contentType The content type of the ABI\n     * @param data The ABI data.\n     */\n    function setABI(bytes32 node, uint256 contentType, bytes data) only_owner(node) {\n        // Content types must be powers of 2\n        if(((contentType - 1) & contentType) != 0) throw;\n        \n        records[node].abis[contentType] = data;\n        ABIChanged(node, contentType);\n    }\n    \n    /**\n     * Returns the SECP256k1 public key associated with an ENS node.\n     * Defined in EIP 619.\n     * @param node The ENS node to query\n     * @return x, y the X and Y coordinates of the curve point for the public key.\n     */\n    function pubkey(bytes32 node) constant returns (bytes32 x, bytes32 y) {\n        return (records[node].pubkey.x, records[node].pubkey.y);\n    }\n    \n    /**\n     * Sets the SECP256k1 public key associated with an ENS node.\n     * @param node The ENS node to query\n     * @param x the X coordinate of the curve point for the public key.\n     * @param y the Y coordinate of the curve point for the public key.\n     */\n    function setPubkey(bytes32 node, bytes32 x, bytes32 y) only_owner(node) {\n        records[node].pubkey = PublicKey(x, y);\n        PubkeyChanged(node, x, y);\n    }\n}",
    "sourcePath": "/Users/GustavoIbarra/Projects/Solidity/ens/contracts/Resolver.sol",
    "compiler": {
        "name": "solc",
        "version": "0.4.25+commit.59dbf8f1.Emscripten.clang"
    },
    "schemaVersion": "3.0.1",
    "updatedAt": "2019-02-04T23:29:18.573Z",
    "devdoc": {
        "methods": {
            "ABI(bytes32,uint256)": {
                "params": {
                    "contentTypes": "A bitwise OR of the ABI formats accepted by the caller.",
                    "node": "The ENS node to query"
                },
                "return": "contentType The content type of the return valuedata The ABI data"
            },
            "addr(bytes32)": {
                "params": {
                    "node": "The ENS node to query."
                },
                "return": "The associated address."
            },
            "content(bytes32)": {
                "params": {
                    "node": "The ENS node to query."
                },
                "return": "The associated content hash."
            },
            "name(bytes32)": {
                "params": {
                    "node": "The ENS node to query."
                },
                "return": "The associated name."
            },
            "pubkey(bytes32)": {
                "params": {
                    "node": "The ENS node to query"
                },
                "return": "x, y the X and Y coordinates of the curve point for the public key."
            },
            "setABI(bytes32,uint256,bytes)": {
                "params": {
                    "contentType": "The content type of the ABI",
                    "data": "The ABI data.",
                    "node": "The node to update."
                }
            },
            "setAddr(bytes32,address)": {
                "params": {
                    "addr": "The address to set.",
                    "node": "The node to update."
                }
            },
            "setContent(bytes32,bytes32)": {
                "params": {
                    "hash": "The content hash to set",
                    "node": "The node to update."
                }
            },
            "setName(bytes32,string)": {
                "params": {
                    "name": "The name to set.",
                    "node": "The node to update."
                }
            },
            "setPubkey(bytes32,bytes32,bytes32)": {
                "params": {
                    "node": "The ENS node to query",
                    "x": "the X coordinate of the curve point for the public key.",
                    "y": "the Y coordinate of the curve point for the public key."
                }
            },
            "supportsInterface(bytes4)": {
                "params": {
                    "interfaceID": "The ID of the interface to check for."
                },
                "return": "True if the contract implements the requested interface."
            }
        }
    },
    "userdoc": {
        "methods": {
            "ABI(bytes32,uint256)": {
                "notice": "Returns the ABI associated with an ENS node. Defined in EIP205."
            },
            "addr(bytes32)": {
                "notice": "Returns the address associated with an ENS node."
            },
            "content(bytes32)": {
                "notice": "Returns the content hash associated with an ENS node. Note that this resource type is not standardized, and will likely change in future to a resource type based on multihash."
            },
            "name(bytes32)": {
                "notice": "Returns the name associated with an ENS node, for reverse records. Defined in EIP181."
            },
            "pubkey(bytes32)": {
                "notice": "Returns the SECP256k1 public key associated with an ENS node. Defined in EIP 619."
            },
            "setABI(bytes32,uint256,bytes)": {
                "notice": "Sets the ABI associated with an ENS node. Nodes may have one ABI of each content type. To remove an ABI, set it to the empty string."
            },
            "setAddr(bytes32,address)": {
                "notice": "Sets the address associated with an ENS node. May only be called by the owner of that node in the ENS registry."
            },
            "setContent(bytes32,bytes32)": {
                "notice": "Sets the content hash associated with an ENS node. May only be called by the owner of that node in the ENS registry. Note that this resource type is not standardized, and will likely change in future to a resource type based on multihash."
            },
            "setName(bytes32,string)": {
                "notice": "Sets the name associated with an ENS node, for reverse records. May only be called by the owner of that node in the ENS registry."
            },
            "setPubkey(bytes32,bytes32,bytes32)": {
                "notice": "Sets the SECP256k1 public key associated with an ENS node."
            },
            "supportsInterface(bytes4)": {
                "notice": "Returns true if the resolver implements the interface specified by the provided hash."
            }
        }
    }
}